:020000040000FA
:04000000D1EF05F047
:100B80008B928B948B968B988B9A8B9C8B9E12005E
:100B900094909492949494969498949A949C949EFD
:100BA0001200220EF66E0C0EF76E000EF86E00EEBE
:100BB00001F010EE46F00900F5CFEEFFE550E150F0
:100BC000FAE10001F8EF05F0476E000E486EECEF19
:100BD00005F0482AECEF05F04750485CD8A0F3EF49
:100BE00005F0F5EF05F0E9EF05F0F7EF05F012007D
:100BF000000E946EC8EC05F0C0EC05F000EF06F0B6
:100C0000050E34EC06F0640EE4EC05F0C0EC05F0E3
:100C1000640EE4EC05F000EF06F000EF06F000EFE4
:100C200000F00101010101010000010100000000CC
:100C300001010001010001010101010000010001A9
:100C40000100000101010001010001010100010199
:100C50000101010101010000000001010101010188
:100C60000101010101000101476E4750D8A43BEF8B
:100C700006F03DEF06F062EF06F001B002D08B9275
:100C800001D08B8202B002D08B9401D08B8403B050
:100C900002D08B9601D08B8604B002D08B9801D005
:100CA0008B8805B002D08B9A01D08B8A06B002D017
:100CB0008B9C01D08B8C07B002D08B9E01D08B8E89
:100CC00062EF06F04704D8A468EF06F06AEF06F07A
:100CD0008FEF06F008B002D08B9201D08B8209B062
:100CE00002D08B9401D08B840AB002D08B9601D0B5
:100CF0008B860BB002D08B9801D08B880CB002D0C1
:100D00008B9A01D08B8A0DB002D08B9C01D08B8C3A
:100D10000EB002D08B9E01D08B8E8FEF06F0020EAC
:100D20004718D8A496EF06F098EF06F0BDEF06F04E
:100D30000FB002D08B9201D08B8210B002D08B9476
:100D400001D08B8411B002D08B9601D08B8612B06B
:100D500002D08B9801D08B8813B002D08B9A01D02F
:100D60008B8A14B002D08B9C01D08B8C15B002D032
:100D70008B9E01D08B8EBDEF06F0030E4718D8A4D2
:100D8000C4EF06F0C6EF06F0EBEF06F016B002D0A7
:100D90008B9201D08B8217B002D08B9401D08B84C0
:100DA00018B002D08B9601D08B8619B002D08B98E8
:100DB00001D08B881AB002D08B9A01D08B8A1BB0DD
:100DC00002D08B9C01D08B8C1CB002D08B9E01D0AA
:100DD0008B8EEBEF06F0040E4718D8A4F2EF06F066
:100DE000F4EF06F019EF07F01DB002D08B9201D09E
:100DF0008B821EB002D08B9401D08B841FB002D0A6
:100E00008B9601D08B8620B002D08B9801D08B8836
:100E100021B002D08B9A01D08B8A22B002D08B9C59
:100E200001D08B8C23B002D08B9E01D08B8E19EF1A
:100E300007F0050E4718D8A420EF07F022EF07F0BF
:100E400047EF07F024B002D08B9201D08B8225B0FF
:100E500002D08B9401D08B8426B002D08B9601D027
:100E60008B8627B002D08B9801D08B8828B002D017
:100E70008B9A01D08B8A29B002D08B9C01D08B8CAD
:100E80002AB002D08B9E01D08B8E47EF07F0060E62
:100E90004718D8A44EEF07F050EF07F075EF07F0B2
:100EA0002BB002D08B9201D08B822CB002D08B94CD
:100EB00001D08B842DB002D08B9601D08B862EB0C2
:100EC00002D08B9801D08B882FB002D08B9A01D0A2
:100ED0008B8A30B002D08B9C01D08B8C31B002D089
:100EE0008B9E01D08B8E75EF07F0070E4718D8A4A4
:100EF0007CEF07F07EEF07F0A3EF07F032B002D0EF
:100F00008B9201D08B8233B002D08B9401D08B8432
:100F100034B002D08B9601D08B8635B002D08B983E
:100F200001D08B8836B002D08B9A01D08B8A37B033
:100F300002D08B9C01D08B8C38B002D08B9E01D01C
:100F40008B8EA3EF07F0080E4718D8A4AAEF07F07E
:100F5000ACEF07F0D1EF07F039B002D08B9201D09F
:100F60008B823AB002D08B9401D08B843BB002D0FC
:100F70008B9601D08B863CB002D08B9801D08B88A9
:100F80003DB002D08B9A01D08B8A3EB002D08B9CB0
:100F900001D08B8C3FB002D08B9E01D08B8ED1EFD5
:100FA00007F0090E4718D8A4D8EF07F0DAEF07F0DA
:100FB000FFEF07F040B002D08B9201D08B8241B09E
:100FC00002D08B9401D08B8442B002D08B9601D09A
:100FD0008B8643B002D08B9801D08B8844B002D06E
:100FE0008B9A01D08B8A45B002D08B9C01D08B8C20
:100FF00046B002D08B9E01D08B8EFFEF07F012001F
:020000040020DA
:08000000FFFFFFFFFFFFFFFF00
:020000040030CA
:0E000000FF880D1EFF0385FF0FC00FE00F40AD
:00000001FF
